:030000000200B546
:0C00B500787FE4F6D8FD75811E0200FC87
:0F0252000A14057D46543C94845D0414011E017A
:10014100E4F508F509750A00750B64AF09AE0812EC
:10015100022DE50B150B7002150AD3E50B9400E592
:100161000A940050E60509E50970020508D39409CF
:10017100E508940040CF750800750901750A0075FE
:100181000B19AF09AE08120003E50B150B70021530
:100191000AD3E50B9400E50A940050E60509E50948
:0D01A10070020508D3940FE508942740CFA5
:0101AE00222E
:0B02040074142FF8E6F5807F017E00E7
:10020F00D3EF9400EE940040147D6E7C00ED1D70D2
:0D021F00011CED4C70F7EF1F70E61E80E330
:01022C0022AF
:10022D00AB07AA06C2A5851E807F057E0012020FB0
:10023D00D2A5C2A674142BF8E6F5807F057E0012B8
:05024D00020FD2A62201
:04000300AB07AA0697
:100007007C037DE81201AF8E0C8F0D7C037DE8AF7A
:1000170003AE021201AF7E007F64CFCDCFCECCCE30
:100027001201AF8E0E8F0F7C007D64AF03AE0212FC
:1000370001AF7E007F0ACFCDCFCECCCE1201AF8EDF
:10004700108F11AE02AF037C007D0A1201AF8C1234
:100057008D13E50D450C601612026212026EAF0F8A
:10006700AE0E12027AAF0DAE0C1202828013E50FAC
:10007700450E601112026212026EAF0FAE0E12022F
:100087007A7F0C8023E5114510AF13AE12600A1278
:10009700026612026E7F14800F1202667F0C7E00CA
:0D00A70012020F1202627F0C7E0012020F87
:0100B4002229
:04026200AF13AE1216
:08026600C2A6120204D2A62276
:04026E00AF11AE100E
:08027200C2A5120204D2A5226C
:08027A00C2A4120204D2A42266
:08028200C2A3120204D2A32260
:1000C100020141E493A3F8E493A34003F68001F213
:1000D10008DFF48029E493A3F85407240CC8C33340
:1000E100C4540F4420C8834004F456800146F6DF0F
:1000F100E4800B0102040810204080900252E47E4B
:10010100019360BCA3FF543F30E509541FFEE49303
:10011100A360010ECF54C025E060A840B8E493A3CA
:10012100FAE493A3F8E493A3C8C582C8CAC583CAF5
:10013100F0A3C8C582C8CAC583CADFE9DEE780BEAD
:01026100009C
:1001AF00BC000BBE0029EF8DF084FFADF022E4CC34
:1001BF00F875F008EF2FFFEE33FEEC33FCEE9DECFD
:1001CF00984005FCEE9DFE0FD5F0E9E4CEFD22ED43
:1001DF00F8F5F0EE8420D21CFEADF075F008EF2F8D
:1001EF00FFED33FD4007985006D5F0F222C398FD7E
:0501FF000FD5F0EA221B
:00000001FF
